{
  "_format": "hh-sol-artifact-1",
  "contractName": "MyTokenCrowdsale",
  "sourceName": "contracts/ico.sol",
  "abi": [
    {
      "inputs": [
        {
          "internalType": "uint256",
          "name": "rate",
          "type": "uint256"
        },
        {
          "internalType": "address payable",
          "name": "wallet",
          "type": "address"
        },
        {
          "internalType": "contract IERC20",
          "name": "token",
          "type": "address"
        }
      ],
      "stateMutability": "nonpayable",
      "type": "constructor"
    },
    {
      "anonymous": false,
      "inputs": [
        {
          "indexed": true,
          "internalType": "address",
          "name": "purchaser",
          "type": "address"
        },
        {
          "indexed": true,
          "internalType": "address",
          "name": "beneficiary",
          "type": "address"
        },
        {
          "indexed": false,
          "internalType": "uint256",
          "name": "value",
          "type": "uint256"
        },
        {
          "indexed": false,
          "internalType": "uint256",
          "name": "amount",
          "type": "uint256"
        }
      ],
      "name": "TokensPurchased",
      "type": "event"
    },
    {
      "inputs": [
        {
          "internalType": "address",
          "name": "beneficiary",
          "type": "address"
        }
      ],
      "name": "buyTokens",
      "outputs": [],
      "stateMutability": "payable",
      "type": "function"
    },
    {
      "inputs": [],
      "name": "preSale",
      "outputs": [
        {
          "internalType": "uint256",
          "name": "",
          "type": "uint256"
        }
      ],
      "stateMutability": "view",
      "type": "function"
    },
    {
      "inputs": [],
      "name": "preSaleQty",
      "outputs": [
        {
          "internalType": "uint256",
          "name": "",
          "type": "uint256"
        }
      ],
      "stateMutability": "view",
      "type": "function"
    },
    {
      "inputs": [],
      "name": "publicSale",
      "outputs": [
        {
          "internalType": "uint256",
          "name": "",
          "type": "uint256"
        }
      ],
      "stateMutability": "view",
      "type": "function"
    },
    {
      "inputs": [],
      "name": "publicSaleQty",
      "outputs": [
        {
          "internalType": "uint256",
          "name": "",
          "type": "uint256"
        }
      ],
      "stateMutability": "view",
      "type": "function"
    },
    {
      "inputs": [],
      "name": "rate",
      "outputs": [
        {
          "internalType": "uint256",
          "name": "",
          "type": "uint256"
        }
      ],
      "stateMutability": "view",
      "type": "function"
    },
    {
      "inputs": [],
      "name": "seedSale",
      "outputs": [
        {
          "internalType": "uint256",
          "name": "",
          "type": "uint256"
        }
      ],
      "stateMutability": "view",
      "type": "function"
    },
    {
      "inputs": [],
      "name": "seedSaleQty",
      "outputs": [
        {
          "internalType": "uint256",
          "name": "",
          "type": "uint256"
        }
      ],
      "stateMutability": "view",
      "type": "function"
    },
    {
      "inputs": [
        {
          "internalType": "uint256",
          "name": "",
          "type": "uint256"
        }
      ],
      "name": "stageTokens",
      "outputs": [
        {
          "internalType": "uint256",
          "name": "",
          "type": "uint256"
        }
      ],
      "stateMutability": "view",
      "type": "function"
    },
    {
      "inputs": [],
      "name": "token",
      "outputs": [
        {
          "internalType": "contract IERC20",
          "name": "",
          "type": "address"
        }
      ],
      "stateMutability": "view",
      "type": "function"
    },
    {
      "inputs": [],
      "name": "wallet",
      "outputs": [
        {
          "internalType": "address payable",
          "name": "",
          "type": "address"
        }
      ],
      "stateMutability": "view",
      "type": "function"
    },
    {
      "inputs": [],
      "name": "weiRaised",
      "outputs": [
        {
          "internalType": "uint256",
          "name": "",
          "type": "uint256"
        }
      ],
      "stateMutability": "view",
      "type": "function"
    },
    {
      "stateMutability": "payable",
      "type": "receive"
    }
  ],
  "bytecode": "0x6080604052666a94d74f43000060045566b1a2bc2ec5000060055566470de4df82000060065561411b600755613520600855610d486009556000600a556001600b556002600c5534801561005257600080fd5b506040516114b03803806114b08339818101604052606081101561007557600080fd5b8101908080519060200190929190805190602001909291908051906020019092919050505082828260016000806101000a81548160ff0219169083151502179055506000831161012d576040517f08c379a00000000000000000000000000000000000000000000000000000000081526004018080602001828103825260148152602001807f43726f776473616c653a2072617465206973203000000000000000000000000081525060200191505060405180910390fd5b600073ffffffffffffffffffffffffffffffffffffffff168273ffffffffffffffffffffffffffffffffffffffff1614156101b3576040517f08c379a000000000000000000000000000000000000000000000000000000000815260040180806020018281038252602581526020018061148b6025913960400191505060405180910390fd5b600073ffffffffffffffffffffffffffffffffffffffff168173ffffffffffffffffffffffffffffffffffffffff161415610239576040517f08c379a00000000000000000000000000000000000000000000000000000000081526004018080602001828103825260248152602001806114676024913960400191505060405180910390fd5b8260028190555081600160006101000a81548173ffffffffffffffffffffffffffffffffffffffff021916908373ffffffffffffffffffffffffffffffffffffffff16021790555080600060016101000a81548173ffffffffffffffffffffffffffffffffffffffff021916908373ffffffffffffffffffffffffffffffffffffffff1602179055505050506102d36102db60201b60201c565b505050610331565b600454600d6000600a54815260200190815260200160002081905550600554600d6000600b54815260200190815260200160002081905550600654600d6000600c54815260200190815260200160002081905550565b611127806103406000396000f3fe6080604052600436106100ab5760003560e01c80635a7adf7f116100645780635a7adf7f146102195780639f664ec914610244578063a6315be11461026f578063d700d0261461029a578063ec8ac4d8146102c5578063fc0c546a14610309576100c2565b80631e329d5d146100c7578063232bd7c4146100f25780632c4e722e1461014157806333bc1c5c1461016c5780634042b66f14610197578063521eb273146101c2576100c2565b366100c2576100c06100bb610360565b610368565b005b600080fd5b3480156100d357600080fd5b506100dc6104f3565b6040518082815260200191505060405180910390f35b3480156100fe57600080fd5b5061012b6004803603602081101561011557600080fd5b81019080803590602001909291905050506104f9565b6040518082815260200191505060405180910390f35b34801561014d57600080fd5b50610156610511565b6040518082815260200191505060405180910390f35b34801561017857600080fd5b5061018161051b565b6040518082815260200191505060405180910390f35b3480156101a357600080fd5b506101ac610521565b6040518082815260200191505060405180910390f35b3480156101ce57600080fd5b506101d761052b565b604051808273ffffffffffffffffffffffffffffffffffffffff1673ffffffffffffffffffffffffffffffffffffffff16815260200191505060405180910390f35b34801561022557600080fd5b5061022e610555565b6040518082815260200191505060405180910390f35b34801561025057600080fd5b5061025961055b565b6040518082815260200191505060405180910390f35b34801561027b57600080fd5b50610284610561565b6040518082815260200191505060405180910390f35b3480156102a657600080fd5b506102af610567565b6040518082815260200191505060405180910390f35b610307600480360360208110156102db57600080fd5b81019080803573ffffffffffffffffffffffffffffffffffffffff169060200190929190505050610368565b005b34801561031557600080fd5b5061031e61056d565b604051808273ffffffffffffffffffffffffffffffffffffffff1673ffffffffffffffffffffffffffffffffffffffff16815260200191505060405180910390f35b600033905090565b6000809054906101000a900460ff166103e9576040517f08c379a000000000000000000000000000000000000000000000000000000000815260040180806020018281038252601f8152602001807f5265656e7472616e637947756172643a207265656e7472616e742063616c6c0081525060200191505060405180910390fd5b60008060006101000a81548160ff02191690831515021790555060003490506104128282610596565b600061041d82610697565b90506104348260035461074890919063ffffffff16565b60038190555061044483826107d0565b8273ffffffffffffffffffffffffffffffffffffffff16610463610360565b73ffffffffffffffffffffffffffffffffffffffff167f6faf93231a456e552dbc9961f58d9713ee4f2e69d15f1975b050ef0911053a7b8484604051808381526020018281526020019250505060405180910390a36104c283836109ad565b6104ca6109b1565b6104d48383610a1c565b505060016000806101000a81548160ff02191690831515021790555050565b600b5481565b600d6020528060005260406000206000915090505481565b6000600254905090565b600c5481565b6000600354905090565b6000600160009054906101000a900473ffffffffffffffffffffffffffffffffffffffff16905090565b600a5481565b60045481565b60055481565b60065481565b60008060019054906101000a900473ffffffffffffffffffffffffffffffffffffffff16905090565b600073ffffffffffffffffffffffffffffffffffffffff168273ffffffffffffffffffffffffffffffffffffffff16141561061c576040517f08c379a000000000000000000000000000000000000000000000000000000000815260040180806020018281038252602a81526020018061109e602a913960400191505060405180910390fd5b6000811415610693576040517f08c379a00000000000000000000000000000000000000000000000000000000081526004018080602001828103825260198152602001807f43726f776473616c653a20776569416d6f756e7420697320300000000000000081525060200191505060405180910390fd5b5050565b6000600a54600e5414156106d7576106d0633b9aca006106c260075485610a2090919063ffffffff16565b610aa690919063ffffffff16565b9050610743565b600b54600e5414156107155761070e633b9aca0061070060085485610a2090919063ffffffff16565b610aa690919063ffffffff16565b9050610743565b610740633b9aca0061073260095485610a2090919063ffffffff16565b610aa690919063ffffffff16565b90505b919050565b6000808284019050838110156107c6576040517f08c379a000000000000000000000000000000000000000000000000000000000815260040180806020018281038252601b8152602001807f536166654d6174683a206164646974696f6e206f766572666c6f77000000000081525060200191505060405180910390fd5b8091505092915050565b6000600e54141561087957600d6000600a5481526020019081526020016000205481108015610800575060008114155b61080957600080fd5b61083181600d6000600a54815260200190815260200160002054610af090919063ffffffff16565b600d6000600a548152602001908152602001600020819055506000600d6000600a548152602001908152602001600020541415610874576108726001610b3a565b505b61099f565b6001600e54141561092257600d6000600b54815260200190815260200160002054811080156108a9575060008114155b6108b257600080fd5b6108da81600d6000600b54815260200190815260200160002054610af090919063ffffffff16565b600d6000600b548152602001908152602001600020819055506000600d6000600b54815260200190815260200160002054141561091d5761091b6002610b3a565b505b61099e565b6002600e54141561099d57600d6000600c5481526020019081526020016000205481108015610952575060008114155b61095b57600080fd5b61098381600d6000600c54815260200190815260200160002054610af090919063ffffffff16565b600d6000600c548152602001908152602001600020819055505b5b5b6109a98282610b49565b5050565b5050565b600160009054906101000a900473ffffffffffffffffffffffffffffffffffffffff1673ffffffffffffffffffffffffffffffffffffffff166108fc349081150290604051600060405180830381858888f19350505050158015610a19573d6000803e3d6000fd5b50565b5050565b600080831415610a335760009050610aa0565b6000828402905082848281610a4457fe5b0414610a9b576040517f08c379a000000000000000000000000000000000000000000000000000000000815260040180806020018281038252602181526020018061107d6021913960400191505060405180910390fd5b809150505b92915050565b6000610ae883836040518060400160405280601a81526020017f536166654d6174683a206469766973696f6e206279207a65726f000000000000815250610b57565b905092915050565b6000610b3283836040518060400160405280601e81526020017f536166654d6174683a207375627472616374696f6e206f766572666c6f770000815250610c1d565b905092915050565b600081600e8190559050919050565b610b538282610cdd565b5050565b60008083118290610c03576040517f08c379a00000000000000000000000000000000000000000000000000000000081526004018080602001828103825283818151815260200191508051906020019080838360005b83811015610bc8578082015181840152602081019050610bad565b50505050905090810190601f168015610bf55780820380516001836020036101000a031916815260200191505b509250505060405180910390fd5b506000838581610c0f57fe5b049050809150509392505050565b6000838311158290610cca576040517f08c379a00000000000000000000000000000000000000000000000000000000081526004018080602001828103825283818151815260200191508051906020019080838360005b83811015610c8f578082015181840152602081019050610c74565b50505050905090810190601f168015610cbc5780820380516001836020036101000a031916815260200191505b509250505060405180910390fd5b5060008385039050809150509392505050565b610d2a8282600060019054906101000a900473ffffffffffffffffffffffffffffffffffffffff1673ffffffffffffffffffffffffffffffffffffffff16610d2e9092919063ffffffff16565b5050565b610de18363a9059cbb60e01b8484604051602401808373ffffffffffffffffffffffffffffffffffffffff1673ffffffffffffffffffffffffffffffffffffffff16815260200182815260200192505050604051602081830303815290604052907bffffffffffffffffffffffffffffffffffffffffffffffffffffffff19166020820180517bffffffffffffffffffffffffffffffffffffffffffffffffffffffff8381831617835250505050610de6565b505050565b610e058273ffffffffffffffffffffffffffffffffffffffff16611031565b610e77576040517f08c379a000000000000000000000000000000000000000000000000000000000815260040180806020018281038252601f8152602001807f5361666545524332303a2063616c6c20746f206e6f6e2d636f6e74726163740081525060200191505060405180910390fd5b600060608373ffffffffffffffffffffffffffffffffffffffff16836040518082805190602001908083835b60208310610ec65780518252602082019150602081019050602083039250610ea3565b6001836020036101000a0380198251168184511680821785525050505050509050019150506000604051808303816000865af19150503d8060008114610f28576040519150601f19603f3d011682016040523d82523d6000602084013e610f2d565b606091505b509150915081610fa5576040517f08c379a00000000000000000000000000000000000000000000000000000000081526004018080602001828103825260208152602001807f5361666545524332303a206c6f772d6c6576656c2063616c6c206661696c656481525060200191505060405180910390fd5b60008151111561102b57808060200190516020811015610fc457600080fd5b810190808051906020019092919050505061102a576040517f08c379a000000000000000000000000000000000000000000000000000000000815260040180806020018281038252602a8152602001806110c8602a913960400191505060405180910390fd5b5b50505050565b60008060007fc5d2460186f7233c927e7db2dcc703c0e500b653ca82273b7bfad8045d85a47060001b9050833f915080821415801561107357506000801b8214155b9250505091905056fe536166654d6174683a206d756c7469706c69636174696f6e206f766572666c6f7743726f776473616c653a2062656e656669636961727920697320746865207a65726f20616464726573735361666545524332303a204552433230206f7065726174696f6e20646964206e6f742073756363656564a2646970667358221220efc7cb2344e8a66318bacf63cd5f30ab3261d37b116f3d249e398ed45e9eac2364736f6c6343000602003343726f776473616c653a20746f6b656e20697320746865207a65726f206164647265737343726f776473616c653a2077616c6c657420697320746865207a65726f2061646472657373",
  "linkReferences": {},
  "deployedLinkReferences": {}
}